{
  "_format": "hh-sol-artifact-1",
  "contractName": "RrpRequester",
  "sourceName": "contracts/RrpRequester.sol",
  "abi": [
    {
      "inputs": [
        {
          "internalType": "address",
          "name": "_rrpAddress",
          "type": "address"
        }
      ],
      "stateMutability": "nonpayable",
      "type": "constructor"
    },
    {
      "anonymous": false,
      "inputs": [
        {
          "indexed": true,
          "internalType": "address",
          "name": "owner",
          "type": "address"
        },
        {
          "indexed": true,
          "internalType": "address",
          "name": "spender",
          "type": "address"
        },
        {
          "indexed": false,
          "internalType": "uint256",
          "name": "value",
          "type": "uint256"
        }
      ],
      "name": "Approval",
      "type": "event"
    },
    {
      "anonymous": false,
      "inputs": [
        {
          "indexed": true,
          "internalType": "address",
          "name": "previousOwner",
          "type": "address"
        },
        {
          "indexed": true,
          "internalType": "address",
          "name": "newOwner",
          "type": "address"
        }
      ],
      "name": "OwnershipTransferred",
      "type": "event"
    },
    {
      "anonymous": false,
      "inputs": [
        {
          "indexed": true,
          "internalType": "bytes32",
          "name": "requestId",
          "type": "bytes32"
        },
        {
          "indexed": false,
          "internalType": "int256",
          "name": "response",
          "type": "int256"
        }
      ],
      "name": "RequestFulfilled",
      "type": "event"
    },
    {
      "anonymous": false,
      "inputs": [
        {
          "indexed": true,
          "internalType": "bytes32",
          "name": "requestId",
          "type": "bytes32"
        }
      ],
      "name": "RequestedUint256",
      "type": "event"
    },
    {
      "anonymous": false,
      "inputs": [
        {
          "indexed": true,
          "internalType": "address",
          "name": "from",
          "type": "address"
        },
        {
          "indexed": true,
          "internalType": "address",
          "name": "to",
          "type": "address"
        },
        {
          "indexed": false,
          "internalType": "uint256",
          "name": "value",
          "type": "uint256"
        }
      ],
      "name": "Transfer",
      "type": "event"
    },
    {
      "inputs": [
        {
          "internalType": "uint256",
          "name": "driverId",
          "type": "uint256"
        }
      ],
      "name": "addBettor",
      "outputs": [],
      "stateMutability": "payable",
      "type": "function"
    },
    {
      "inputs": [],
      "name": "airnodeRrp",
      "outputs": [
        {
          "internalType": "contract IAirnodeRrpV0",
          "name": "",
          "type": "address"
        }
      ],
      "stateMutability": "view",
      "type": "function"
    },
    {
      "inputs": [
        {
          "internalType": "address",
          "name": "owner",
          "type": "address"
        },
        {
          "internalType": "address",
          "name": "spender",
          "type": "address"
        }
      ],
      "name": "allowance",
      "outputs": [
        {
          "internalType": "uint256",
          "name": "",
          "type": "uint256"
        }
      ],
      "stateMutability": "view",
      "type": "function"
    },
    {
      "inputs": [
        {
          "internalType": "address",
          "name": "",
          "type": "address"
        }
      ],
      "name": "amountBet",
      "outputs": [
        {
          "internalType": "uint256",
          "name": "",
          "type": "uint256"
        }
      ],
      "stateMutability": "view",
      "type": "function"
    },
    {
      "inputs": [
        {
          "internalType": "address",
          "name": "spender",
          "type": "address"
        },
        {
          "internalType": "uint256",
          "name": "amount",
          "type": "uint256"
        }
      ],
      "name": "approve",
      "outputs": [
        {
          "internalType": "bool",
          "name": "",
          "type": "bool"
        }
      ],
      "stateMutability": "nonpayable",
      "type": "function"
    },
    {
      "inputs": [
        {
          "internalType": "address",
          "name": "account",
          "type": "address"
        }
      ],
      "name": "balanceOf",
      "outputs": [
        {
          "internalType": "uint256",
          "name": "",
          "type": "uint256"
        }
      ],
      "stateMutability": "view",
      "type": "function"
    },
    {
      "inputs": [
        {
          "internalType": "address",
          "name": "airnode",
          "type": "address"
        },
        {
          "internalType": "bytes32",
          "name": "endpointId",
          "type": "bytes32"
        },
        {
          "internalType": "address",
          "name": "sponsor",
          "type": "address"
        },
        {
          "internalType": "address",
          "name": "sponsorWallet",
          "type": "address"
        },
        {
          "internalType": "bytes",
          "name": "parameters",
          "type": "bytes"
        }
      ],
      "name": "claimWinnings",
      "outputs": [],
      "stateMutability": "nonpayable",
      "type": "function"
    },
    {
      "inputs": [],
      "name": "decimals",
      "outputs": [
        {
          "internalType": "uint8",
          "name": "",
          "type": "uint8"
        }
      ],
      "stateMutability": "view",
      "type": "function"
    },
    {
      "inputs": [
        {
          "internalType": "address",
          "name": "spender",
          "type": "address"
        },
        {
          "internalType": "uint256",
          "name": "subtractedValue",
          "type": "uint256"
        }
      ],
      "name": "decreaseAllowance",
      "outputs": [
        {
          "internalType": "bool",
          "name": "",
          "type": "bool"
        }
      ],
      "stateMutability": "nonpayable",
      "type": "function"
    },
    {
      "inputs": [
        {
          "internalType": "address",
          "name": "",
          "type": "address"
        }
      ],
      "name": "driverBetMapping",
      "outputs": [
        {
          "internalType": "uint256",
          "name": "",
          "type": "uint256"
        }
      ],
      "stateMutability": "view",
      "type": "function"
    },
    {
      "inputs": [
        {
          "internalType": "uint256",
          "name": "",
          "type": "uint256"
        },
        {
          "internalType": "uint256",
          "name": "",
          "type": "uint256"
        }
      ],
      "name": "driverBettorMapping",
      "outputs": [
        {
          "internalType": "address",
          "name": "",
          "type": "address"
        }
      ],
      "stateMutability": "view",
      "type": "function"
    },
    {
      "inputs": [
        {
          "internalType": "bytes32",
          "name": "requestId",
          "type": "bytes32"
        },
        {
          "internalType": "bytes",
          "name": "data",
          "type": "bytes"
        }
      ],
      "name": "fulfill",
      "outputs": [],
      "stateMutability": "nonpayable",
      "type": "function"
    },
    {
      "inputs": [
        {
          "internalType": "bytes32",
          "name": "",
          "type": "bytes32"
        }
      ],
      "name": "fulfilledData",
      "outputs": [
        {
          "internalType": "uint256",
          "name": "",
          "type": "uint256"
        }
      ],
      "stateMutability": "view",
      "type": "function"
    },
    {
      "inputs": [
        {
          "internalType": "bytes32",
          "name": "",
          "type": "bytes32"
        }
      ],
      "name": "incomingFulfillments",
      "outputs": [
        {
          "internalType": "bool",
          "name": "",
          "type": "bool"
        }
      ],
      "stateMutability": "view",
      "type": "function"
    },
    {
      "inputs": [
        {
          "internalType": "address",
          "name": "spender",
          "type": "address"
        },
        {
          "internalType": "uint256",
          "name": "addedValue",
          "type": "uint256"
        }
      ],
      "name": "increaseAllowance",
      "outputs": [
        {
          "internalType": "bool",
          "name": "",
          "type": "bool"
        }
      ],
      "stateMutability": "nonpayable",
      "type": "function"
    },
    {
      "inputs": [
        {
          "internalType": "address",
          "name": "airnode",
          "type": "address"
        },
        {
          "internalType": "bytes32",
          "name": "endpointId",
          "type": "bytes32"
        },
        {
          "internalType": "address",
          "name": "sponsor",
          "type": "address"
        },
        {
          "internalType": "address",
          "name": "sponsorWallet",
          "type": "address"
        },
        {
          "internalType": "bytes",
          "name": "parameters",
          "type": "bytes"
        }
      ],
      "name": "makeRequest",
      "outputs": [],
      "stateMutability": "nonpayable",
      "type": "function"
    },
    {
      "inputs": [],
      "name": "name",
      "outputs": [
        {
          "internalType": "string",
          "name": "",
          "type": "string"
        }
      ],
      "stateMutability": "view",
      "type": "function"
    },
    {
      "inputs": [],
      "name": "owner",
      "outputs": [
        {
          "internalType": "address",
          "name": "",
          "type": "address"
        }
      ],
      "stateMutability": "view",
      "type": "function"
    },
    {
      "inputs": [
        {
          "internalType": "int256",
          "name": "winnerId",
          "type": "int256"
        }
      ],
      "name": "payoutWinnings",
      "outputs": [],
      "stateMutability": "nonpayable",
      "type": "function"
    },
    {
      "inputs": [],
      "name": "renounceOwnership",
      "outputs": [],
      "stateMutability": "nonpayable",
      "type": "function"
    },
    {
      "inputs": [],
      "name": "symbol",
      "outputs": [
        {
          "internalType": "string",
          "name": "",
          "type": "string"
        }
      ],
      "stateMutability": "view",
      "type": "function"
    },
    {
      "inputs": [],
      "name": "totalSupply",
      "outputs": [
        {
          "internalType": "uint256",
          "name": "",
          "type": "uint256"
        }
      ],
      "stateMutability": "view",
      "type": "function"
    },
    {
      "inputs": [
        {
          "internalType": "address",
          "name": "recipient",
          "type": "address"
        },
        {
          "internalType": "uint256",
          "name": "amount",
          "type": "uint256"
        }
      ],
      "name": "transfer",
      "outputs": [
        {
          "internalType": "bool",
          "name": "",
          "type": "bool"
        }
      ],
      "stateMutability": "nonpayable",
      "type": "function"
    },
    {
      "inputs": [
        {
          "internalType": "address",
          "name": "sender",
          "type": "address"
        },
        {
          "internalType": "address",
          "name": "recipient",
          "type": "address"
        },
        {
          "internalType": "uint256",
          "name": "amount",
          "type": "uint256"
        }
      ],
      "name": "transferFrom",
      "outputs": [
        {
          "internalType": "bool",
          "name": "",
          "type": "bool"
        }
      ],
      "stateMutability": "nonpayable",
      "type": "function"
    },
    {
      "inputs": [
        {
          "internalType": "address",
          "name": "newOwner",
          "type": "address"
        }
      ],
      "name": "transferOwnership",
      "outputs": [],
      "stateMutability": "nonpayable",
      "type": "function"
    },
    {
      "inputs": [
        {
          "internalType": "address",
          "name": "airnode",
          "type": "address"
        },
        {
          "internalType": "address",
          "name": "sponsorWallet",
          "type": "address"
        }
      ],
      "name": "withdraw",
      "outputs": [],
      "stateMutability": "nonpayable",
      "type": "function"
    },
    {
      "stateMutability": "payable",
      "type": "receive"
    }
  ],
  "bytecode": "0x60a06040523480156200001157600080fd5b506040516200186a3803806200186a833981016040819052620000349162000228565b604080518082018252600a81526918995d1cdc5d585c995960b21b602080830191909152825180840184526004808252634254535160e01b928201929092526001600160a01b03851660808190529351632b77c09f60e21b81523092810192909252600160248301529192849163addf027c90604401600060405180830381600087803b158015620000c557600080fd5b505af1158015620000da573d6000803e3d6000fd5b5050505050620000f9620000f36200012e60201b60201c565b62000132565b81516200010e90600490602085019062000182565b5080516200012490600590602084019062000182565b5050505062000297565b3390565b600080546001600160a01b038381166001600160a01b0319831681178455604051919092169283917f8be0079c531659141344cd1fd0a4f28419497f9722a3daafe3b4186f6b6457e09190a35050565b82805462000190906200025a565b90600052602060002090601f016020900481019282620001b45760008555620001ff565b82601f10620001cf57805160ff1916838001178555620001ff565b82800160010185558215620001ff579182015b82811115620001ff578251825591602001919060010190620001e2565b506200020d92915062000211565b5090565b5b808211156200020d576000815560010162000212565b6000602082840312156200023b57600080fd5b81516001600160a01b03811681146200025357600080fd5b9392505050565b600181811c908216806200026f57607f821691505b602082108114156200029157634e487b7160e01b600052602260045260246000fd5b50919050565b6080516115a2620002c8600039600081816103ac0152818161078c01528181610b250152610cfa01526115a26000f3fe6080604052600436106101855760003560e01c80637c1de7e1116100d1578063a9059cbb1161008a578063dd62ed3e11610064578063dd62ed3e146104fc578063e6080aa414610542578063f2fde38b14610562578063f940e3851461058257600080fd5b8063a9059cbb1461048c578063b0eede38146104ac578063dd2ae83f146104cc57600080fd5b80637c1de7e1146103e65780637cff1afe1461040657806385920f72146104195780638da5cb5b1461043957806395d89b4114610457578063a457c2d71461046c57600080fd5b8063395093511161013e57806362966b761161011857806362966b761461032d57806370a082311461034f578063715018a61461038557806371bab6661461039a57600080fd5b806339509351146102b3578063406c6d6c146102d357806347ee8b561461030057600080fd5b806306fdde03146101cc578063095ea7b3146101f757806317dc15561461022757806318160ddd1461026257806323b872dd14610277578063313ce5671461029757600080fd5b366101c757600080546040516001600160a01b03909116914780156108fc02929091818181858888f193505050501580156101c4573d6000803e3d6000fd5b50005b600080fd5b3480156101d857600080fd5b506101e16105a2565b6040516101ee9190611173565b60405180910390f35b34801561020357600080fd5b506102176102123660046111e4565b610634565b60405190151581526020016101ee565b34801561023357600080fd5b5061025461024236600461120e565b60086020526000908152604090205481565b6040519081526020016101ee565b34801561026e57600080fd5b50600354610254565b34801561028357600080fd5b50610217610292366004611230565b61064a565b3480156102a357600080fd5b50604051601281526020016101ee565b3480156102bf57600080fd5b506102176102ce3660046111e4565b6106f9565b3480156102df57600080fd5b506102546102ee36600461126c565b60076020526000908152604090205481565b34801561030c57600080fd5b5061025461031b36600461120e565b60096020526000908152604090205481565b34801561033957600080fd5b5061034d6103483660046112ce565b610735565b005b34801561035b57600080fd5b5061025461036a36600461120e565b6001600160a01b031660009081526001602052604090205490565b34801561039157600080fd5b5061034d61074b565b3480156103a657600080fd5b506103ce7f000000000000000000000000000000000000000000000000000000000000000081565b6040516001600160a01b0390911681526020016101ee565b3480156103f257600080fd5b5061034d61040136600461134d565b610781565b61034d61041436600461126c565b6108c7565b34801561042557600080fd5b5061034d61043436600461126c565b610928565b34801561044557600080fd5b506000546001600160a01b03166103ce565b34801561046357600080fd5b506101e1610a1e565b34801561047857600080fd5b506102176104873660046111e4565b610a2d565b34801561049857600080fd5b506102176104a73660046111e4565b610ac6565b3480156104b857600080fd5b506103ce6104c7366004611399565b610ad3565b3480156104d857600080fd5b506102176104e736600461126c565b60066020526000908152604090205460ff1681565b34801561050857600080fd5b506102546105173660046113bb565b6001600160a01b03918216600090815260026020908152604080832093909416825291909152205490565b34801561054e57600080fd5b5061034d61055d3660046112ce565b610b0b565b34801561056e57600080fd5b5061034d61057d36600461120e565b610c0e565b34801561058e57600080fd5b5061034d61059d3660046113bb565b610ca9565b6060600480546105b1906113ee565b80601f01602080910402602001604051908101604052809291908181526020018280546105dd906113ee565b801561062a5780601f106105ff5761010080835404028352916020019161062a565b820191906000526020600020905b81548152906001019060200180831161060d57829003601f168201915b5050505050905090565b6000610641338484610d52565b50600192915050565b6000610657848484610e76565b6001600160a01b0384166000908152600260209081526040808320338452909152902054828110156106e15760405162461bcd60e51b815260206004820152602860248201527f45524332303a207472616e7366657220616d6f756e74206578636565647320616044820152676c6c6f77616e636560c01b60648201526084015b60405180910390fd5b6106ee8533858403610d52565b506001949350505050565b3360008181526002602090815260408083206001600160a01b0387168452909152812054909161064191859061073090869061143f565b610d52565b610743868686868686610b0b565b505050505050565b6000546001600160a01b031633146107755760405162461bcd60e51b81526004016106d890611457565b61077f6000611044565b565b336001600160a01b037f000000000000000000000000000000000000000000000000000000000000000016146107f25760405162461bcd60e51b8152602060048201526016602482015275043616c6c6572206e6f74204169726e6f6465205252560541b60448201526064016106d8565b60008381526006602052604090205460ff166108475760405162461bcd60e51b81526020600482015260146024820152734e6f20737563682072657175657374206d61646560601b60448201526064016106d8565b6000838152600660205260408120805460ff191690556108698284018461126c565b600085815260076020526040902081905590508061088681610928565b847f0880bb44c8fc43ddef9ba9b31e64f02347aae031e2c3f124ed7bdeeee31d81ff836040516108b891815260200190565b60405180910390a25050505050565b66038d7ea4c680003410156108db57600080fd5b33600081815260086020908152604080832034905560098252808320859055938252600a8152928120805460018101825590825292902090910180546001600160a01b0319169091179055565b6000818152600a60209081526040808320805482518185028101850190935280835285949383018282801561098657602002820191906000526020600020905b81546001600160a01b03168152600190910190602001808311610968575b5050505050905060005b8151811015610a185760008282815181106109ad576109ad61148c565b60200260200101519050600060086000836001600160a01b03166001600160a01b031681526020019081526020016000205460046109eb91906114a2565b6109f7906103e86114a2565b9050610a038282611094565b50508080610a10906114c1565b915050610990565b50505050565b6060600580546105b1906113ee565b3360009081526002602090815260408083206001600160a01b038616845290915281205482811015610aaf5760405162461bcd60e51b815260206004820152602560248201527f45524332303a2064656372656173656420616c6c6f77616e63652062656c6f77604482015264207a65726f60d81b60648201526084016106d8565b610abc3385858403610d52565b5060019392505050565b6000610641338484610e76565b600a6020528160005260406000208181548110610aef57600080fd5b6000918252602090912001546001600160a01b03169150829050565b604051636e6be03f60e01b81526000906001600160a01b037f00000000000000000000000000000000000000000000000000000000000000001690636e6be03f90610b6f908a908a908a908a903090637c1de7e160e01b908c908c906004016114dc565b602060405180830381600087803b158015610b8957600080fd5b505af1158015610b9d573d6000803e3d6000fd5b505050506040513d601f19601f82011682018060405250810190610bc19190611553565b600081815260066020526040808220805460ff191660011790555191925082917fcba2da2f3c0c732a104019a3104936397dde7343964c1518ceb760052e4537b19190a250505050505050565b6000546001600160a01b03163314610c385760405162461bcd60e51b81526004016106d890611457565b6001600160a01b038116610c9d5760405162461bcd60e51b815260206004820152602660248201527f4f776e61626c653a206e6577206f776e657220697320746865207a65726f206160448201526564647265737360d01b60648201526084016106d8565b610ca681611044565b50565b6000546001600160a01b03163314610cd35760405162461bcd60e51b81526004016106d890611457565b604051631d414cbd60e01b81526001600160a01b03838116600483015282811660248301527f00000000000000000000000000000000000000000000000000000000000000001690631d414cbd90604401600060405180830381600087803b158015610d3e57600080fd5b505af1158015610743573d6000803e3d6000fd5b6001600160a01b038316610db45760405162461bcd60e51b8152602060048201526024808201527f45524332303a20617070726f76652066726f6d20746865207a65726f206164646044820152637265737360e01b60648201526084016106d8565b6001600160a01b038216610e155760405162461bcd60e51b815260206004820152602260248201527f45524332303a20617070726f766520746f20746865207a65726f206164647265604482015261737360f01b60648201526084016106d8565b6001600160a01b0383811660008181526002602090815260408083209487168084529482529182902085905590518481527f8c5be1e5ebec7d5bd14f71427d1e84f3dd0314c0f7b2291e5b200ac8c7c3b925910160405180910390a3505050565b6001600160a01b038316610eda5760405162461bcd60e51b815260206004820152602560248201527f45524332303a207472616e736665722066726f6d20746865207a65726f206164604482015264647265737360d81b60648201526084016106d8565b6001600160a01b038216610f3c5760405162461bcd60e51b815260206004820152602360248201527f45524332303a207472616e7366657220746f20746865207a65726f206164647260448201526265737360e81b60648201526084016106d8565b6001600160a01b03831660009081526001602052604090205481811015610fb45760405162461bcd60e51b815260206004820152602660248201527f45524332303a207472616e7366657220616d6f756e7420657863656564732062604482015265616c616e636560d01b60648201526084016106d8565b6001600160a01b03808516600090815260016020526040808220858503905591851681529081208054849290610feb90849061143f565b92505081905550826001600160a01b0316846001600160a01b03167fddf252ad1be2c89b69c2b068fc378daa952ba7f163c4a11628f55a4df523b3ef8460405161103791815260200190565b60405180910390a3610a18565b600080546001600160a01b038381166001600160a01b0319831681178455604051919092169283917f8be0079c531659141344cd1fd0a4f28419497f9722a3daafe3b4186f6b6457e09190a35050565b6001600160a01b0382166110ea5760405162461bcd60e51b815260206004820152601f60248201527f45524332303a206d696e7420746f20746865207a65726f20616464726573730060448201526064016106d8565b80600360008282546110fc919061143f565b90915550506001600160a01b0382166000908152600160205260408120805483929061112990849061143f565b90915550506040518181526001600160a01b038316906000907fddf252ad1be2c89b69c2b068fc378daa952ba7f163c4a11628f55a4df523b3ef9060200160405180910390a35050565b600060208083528351808285015260005b818110156111a057858101830151858201604001528201611184565b818111156111b2576000604083870101525b50601f01601f1916929092016040019392505050565b80356001600160a01b03811681146111df57600080fd5b919050565b600080604083850312156111f757600080fd5b611200836111c8565b946020939093013593505050565b60006020828403121561122057600080fd5b611229826111c8565b9392505050565b60008060006060848603121561124557600080fd5b61124e846111c8565b925061125c602085016111c8565b9150604084013590509250925092565b60006020828403121561127e57600080fd5b5035919050565b60008083601f84011261129757600080fd5b50813567ffffffffffffffff8111156112af57600080fd5b6020830191508360208285010111156112c757600080fd5b9250929050565b60008060008060008060a087890312156112e757600080fd5b6112f0876111c8565b955060208701359450611305604088016111c8565b9350611313606088016111c8565b9250608087013567ffffffffffffffff81111561132f57600080fd5b61133b89828a01611285565b979a9699509497509295939492505050565b60008060006040848603121561136257600080fd5b83359250602084013567ffffffffffffffff81111561138057600080fd5b61138c86828701611285565b9497909650939450505050565b600080604083850312156113ac57600080fd5b50508035926020909101359150565b600080604083850312156113ce57600080fd5b6113d7836111c8565b91506113e5602084016111c8565b90509250929050565b600181811c9082168061140257607f821691505b6020821081141561142357634e487b7160e01b600052602260045260246000fd5b50919050565b634e487b7160e01b600052601160045260246000fd5b6000821982111561145257611452611429565b500190565b6020808252818101527f4f776e61626c653a2063616c6c6572206973206e6f7420746865206f776e6572604082015260600190565b634e487b7160e01b600052603260045260246000fd5b60008160001904831182151516156114bc576114bc611429565b500290565b60006000198214156114d5576114d5611429565b5060010190565b6001600160a01b0389811682526020820189905287811660408301528681166060830152851660808201526001600160e01b0319841660a082015260e060c08201819052810182905260006101008385828501376000838501820152601f909301601f191690910190910198975050505050505050565b60006020828403121561156557600080fd5b505191905056fea2646970667358221220606e6021cd648a04f3664c2700342d4b74ac3db34d789167f00165f4fb66e3dd64736f6c63430008090033",
  "linkReferences": {},
  "deployedLinkReferences": {}
}